:020000023000CC
:10F800000D9472FC0D94A0FC0D94A0FC0D94A0FC32
:10F810000D94A0FC0D94A0FC0D94A0FC0D94A0FCF4
:10F820000D94A0FC0D94A0FC0D94A0FC0D94A0FCE4
:10F830000D94A0FC0D94A0FC0D94A0FC0D94A0FCD4
:10F840000D94A0FC0D94A0FC0D94A0FC0D94A0FCC4
:10F850000D94A0FC0D94A0FC0D94A0FC0D94A0FCB4
:10F860000D94A0FC0D94A0FC0D94A0FC0D94A0FCA4
:10F870000D94A0FC0D94A0FC0D94A0FC0D94A0FC94
:10F880000D94A0FC0D94A0FC0D94A0FC0D94A0FC84
:10F890000D94A0FC0D94A0FC0D94A0FC0D94A0FC74
:10F8A0000D94A0FC0D94A0FC0D94A0FC0D94A0FC64
:10F8B0000D94A0FC0D94A0FC0D94A0FC0D94A0FC54
:10F8C0000D94A0FC0D94A0FC0D94A0FC0D94A0FC44
:10F8D0000D94A0FC0D94A0FC0D94A0FC0D94A0FC34
:10F8E0000D94A0FC11241FBECFEFD1E2DEBFCDBF2F
:10F8F00001E00CBF84B78093000314BE88E10FB60B
:10F90000F89480936000109260000FBE12E0A0E0B7
:10F91000B2E0E2E8FFEF03E00BBF02C007900D92F8
:10F92000A030B107D9F71BBE13E0A0E0B2E001C0E0
:10F930001D92A030B107E1F70F94D4FC0D94BFFFE6
:10F940000D9400FC8091C00085FFFCCF81E4809382
:10F95000C6008091C00085FFFCCF86E58093C6007D
:10F960008091C00085FFFCCF82E58093C600809126
:10F97000C00085FFFCCF82E48093C6008091C00068
:10F9800085FFFCCF8FE48093C6008091C00085FF87
:10F99000FCCF8FE48093C6008091C00085FFFCCF30
:10F9A00084E58093C60008952F923F924F925F9214
:10F9B0006F927F928F929F92AF92BF92CF92DF927F
:10F9C000EF92FF920F931F93CF93DF93F894A89534
:10F9D00098E10FB6F89490936000109260000FBE0B
:10F9E000809104018068809304011092C50080E139
:10F9F0008093C40082E08093C0009093C10086E0B1
:10FA00008093C20020E030E040E45CE9C9018370EB
:10FA10009070892B29F4809105018058809305010D
:10FA20008091C00087FD0CC0283C310518F0479834
:10FA30000C9400002F5F3F4FCA010197F1F7E6CF0A
:10FA40000F94A2FCEE24FF24870177248824A9E5E3
:10FA50004A2EFDE09F2E55245394E8E12E2E312CA2
:10FA600079E0672E8091C00087FFFCCF9091C6009F
:10FA7000913639F48091C00085FFFCCF4092C600DA
:10FA800078C29134D1F48091C00087FFFCCF90916F
:10FA9000C6008091C00087FFFCCF2091C6008091F6
:10FAA000C00085FFFCCF892F90E0A0E0B0E0EE24FD
:10FAB000F82E092F1A2F822F2CC09834A1F580918F
:10FAC000C00087FFFCCF9091C6008091C00087FFE7
:10FAD000FCCF2091C6008091C00087FFFCCF6091D1
:10FAE000C6008091C00085FFFCCF892F90E0A0E088
:10FAF000B0E0BA2FA92F982F882730E040E050E0DF
:10FB0000822B932BA42BB52BEE24F82E092F1A2F22
:10FB1000862F90E0A0E0B0E0E82AF92A0A2B1B2B00
:10FB20009092C60026C2923689F48091C00085FF6B
:10FB3000FCCF4092C6008091C00085FFFCCF509260
:10FB4000C6008091C00085FFFCCFB5C1923409F09A
:10FB50009AC08091C00087FFFCCF9091C600809131
:10FB6000C00087FFFCCF8091C600B92EAA24682F61
:10FB700070E06A297B298091C00087FFFCCF9091BB
:10FB8000C60020E030E0E0E0F2E02617370710F092
:10FB90008FEF06C08091C00087FFFCCF8091C60028
:10FBA00080832F5F3F4F81E02030380711F031967E
:10FBB000ECCF23E4721609F061C0963409F03AC024
:10FBC000EE0CFF1C001F111FA8019701A0E0B2E07E
:10FBD0008C9190E01196DC911197C0E08C2B9D2BBD
:10FBE00012960C01F90140935B0050925700E89582
:10FBF00011242E5F3F4F4F4F5F4F6250704041F7CF
:10FC000085E0F70100935B0080935700E89507B605
:10FC100000FCFDCF07B600FCFDCFF999FECF81E1D6
:10FC200080935700E89579018A0116950795F79416
:10FC3000E7941FC09534E9F4D7019B01C701E0E0C8
:10FC4000F2E04191F999FECF1FBA92BD81BD40BD4E
:10FC50000FB6F894FA9AF99A0FBE019621503040E7
:10FC600081F7CD01860F971FF999FECF7C0100E047
:10FC700010E08091C00085FFFCCF52CF8091C00082
:10FC800085FFFCCF18C1973609F065C08091C00090
:10FC900087FFFCCF9091C6008091C00087FFFCCF0A
:10FCA0008091C600D92ECC24A82FB0E0AC29BD2964
:10FCB0008091C00087FFFCCF8091C600863471F52B
:10FCC000A8019701220F331F441F551F2F3F87EFB5
:10FCD000380783E0480780E0580718F06FEF7FEFA0
:10FCE00004C04BBFF901679176918091C00085FFF8
:10FCF000FCCF6093C6008091C00085FFFCCF70935D
:10FD0000C6002E5F3F4F4F4F5F4F1297F9F67901B4
:10FD10008A0116950795F794E7942BC1853409F06D
:10FD200028C1B701AD019701F999FECF32BD21BDC0
:10FD3000F89A90B58091C00085FFFCCF9093C600E3
:10FD40002F5F3F4F4150504079F76A0F7B1F7B0177
:10FD500000E010E00EC1953659F523E4721619F54E
:10FD600080E090E0A0E0B0E007B600FCFDCFF9999C
:10FD7000FECF23E0FC01A0935B0020935700E895A1
:10FD800007B600FCFDCF80509F4FAF4FBF4F803074
:10FD900028EF920723E0A20720E0B20729F781E1CC
:10FDA00080935700E8958091C00085FFFCCFB8CEC6
:10FDB000953481F48091C00085FFFCCF9092C600FD
:10FDC0002CE00FB6F894A895209260000FBE209307
:10FDD0006000CFC09C36C1F483E4781681F4809132
:10FDE000C00087FFFCCF8091C6008095E1E0F0E085
:10FDF000082E60925700E89507B600FCFDCF809171
:10FE0000C00085FFFCCF8CCE903529F48091C000D6
:10FE100085FFFCCF85CE9C3429F48091C00085FFFE
:10FE2000FCCF7ECE903741F48091C00085FFFCCF9F
:10FE300023E52093C6009DC0963451F4E1E0F0E044
:10FE40006092570094918091C00085FFFCCF23C041
:10FE5000923751F4E1E0F0E0609257009491809184
:10FE6000C00085FFFCCF17C09E3451F4E1E0F0E004
:10FE70006092570094918091C00085FFFCCF0BC029
:10FE8000913561F4E1E0F0E0609257009491809147
:10FE9000C00085FFFCCF9093C6006BC0943771F40F
:10FEA0008091C00085FFFCCF83E48093C6008091E1
:10FEB000C00085FFFCCF1092C6005BC0892F885719
:10FEC000823058F48091C00087FFFCCF8091C6003B
:10FED0008091C00085FFFCCF23CE943559F48091EA
:10FEE000C00087FFFCCF7090C6008091C00085FFE6
:10FEF000FCCF16CE933519F40F94A2FC3AC0963578
:10FF000069F48091C00085FFFCCF20E32093C600F8
:10FF10008091C00085FFFCCF88E314C09337A9F41B
:10FF20008091C00085FFFCCF5092C6008091C00038
:10FF300085FFFCCF28E92093C6008091C00085FF93
:10FF4000FCCF8EE18093C60014C09B3161F080919C
:10FF5000C00085FFFCCF2FE32093C600839482E08E
:10FF6000881538F404C0839422E0281510F40C940A
:10FF700000008091050180588093050173CDF894AD
:02FF8000FFCFB1
:040000033000F800D1
:00000001FF
