:100000000C9478000C94A9000C94A9000C94A900FD
:100010000C94A9000C94A9000C94A9000C94A900BC
:100020000C94A9000C94A9000C94A9000C94A900AC
:100030000C94A9000C94A9000C94A9000C94A9009C
:100040000C94A9000C94BF0C0C94A9000C94A9006A
:100050000C94A9000C94A9000C94A9000C94A9007C
:100060000C94A9000C9420010C944D010C94A9004F
:100070000C94A9000C94A9000C94A9000C94A9005C
:100080000C94A9000C94A9000C94A9000C94A9004C
:100090000C94A9000C94A9000C94A9000C94A9003C
:1000A0000C94A9000C94A9000C94A9000C94A9002C
:1000B0000C94A9000C94A9000C94A9000C94A9001C
:1000C0000C94A9000C94A9000C94A9000C94A9000C
:1000D0000C94A9000C94A9000C948F010C94A90015
:1000E0000C94A900B115DB01EC01C215F016011743
:1000F00011241FBECFEFD1E2DEBFCDBF00E00CBFA9
:1001000013E0A0E0B2E0E6E7F8E300E00BBF02C0D6
:1001100007900D92A231B107D9F710E1A2E1B3E047
:1001200001C01D92A83FB107E1F710E0C0EFD0E099
:1001300000E006C022970109FE010BBF0E947E1756
:10014000C43ED10780E00807A9F70E94CC130C94A5
:10015000391C0C9400002FB7F894E09122049E2FD4
:100160009F5F80912304981739F0F0E0EE5DFC4F1B
:100170008DE08083909322042FBFE0911A03F091C9
:100180001B0381818062818380E090E008958A3042
:1001900081F12FB7F894E09122049E2F9F5F309158
:1001A0002304931731F0F0E0EE5DFC4F80839093D1
:1001B00022042FBFE0911A03F0911B0391819062FA
:1001C00091838A3019F080E090E008952FB7F89479
:1001D00090912304809122042FBF9813F7CFE091D0
:1001E0001A03F0911B03808186FFF0CF80E090E03E
:1001F00008953FB7F894E09122042E2F2F5F90913D
:100200002304291739F0F0E0EE5DFC4F9DE0908368
:10021000209322043FBFE0911A03F0911B039181C8
:1002200090629183B6CFFC017583648382E0808302
:1002300088E9818386E0828308958093100208957F
:100240001F920F920FB60F920BB60F9211242F939D
:100250003F938F939F93EF93FF933091C6009FB787
:10026000F894E09124058E2F8F5F20912505821749
:1002700031F0F0E0EC5DFB4F3083809324059FBFAD
:10028000FF91EF919F918F913F912F910F900BBE16
:100290000F900FBE0F901F9018951F920F920FB6E0
:1002A0000F920BB60F9211242F933F938F939F932E
:1002B000EF93FF932FB7F894909123048091220439
:1002C0002FBF981731F12FB7F89480912304E82FAE
:1002D000F0E0EE5DFC4F908130912204831799F09D
:1002E0008F5F809323042FBF9093C600FF91EF91FF
:1002F0009F918F913F912F910F900BBE0F900FBE4A
:100300000F901F901895809105018F7780930501BC
:10031000EACF8091C1008F7D8093C100E7CF1F920B
:100320000F920FB60F920BB60F9211242F933F939B
:100330008F939F93EF93FF93809136018823D1F0A1
:1003400090911002992319F12FB7F894E0912204AB
:100350009E2F9F5F30912304931731F0F0E0EE5D04
:10036000FC4F8083909322042FBF8091C100806254
:100370008093C100FF91EF919F918F913F912F91B9
:100380000F900BBE0F900FBE0F901F9018952FB7B8
:10039000F894E09126069E2F9F5F309127069317D1
:1003A00011F42FBFE7CFF0E0EA5DFA4F808390931E
:1003B00026062FBFDFCF809108029091090290930B
:1003C0001F0380931E0380910E0290910F02909361
:1003D0002103809320030895109222041092230495
:1003E00010922405109225051092260610922706D9
:1003F0000895EF92FF920F931F93CF93DF93CDB7A2
:10040000DEB7AB970FB6F894DEBF0FBECDBF8A0143
:10041000E82EF12C262F332727FD30953F936F933D
:100420001F928F9384EB92E09F938F931F9284E1AE
:100430008F93CE0145969F938F936BA70E941F19B0
:10044000809105018460809305018FE193E001971D
:10045000F1F700C000009D890FB6F894DEBF0FBE13
:10046000CDBF6BA5E0912806F0912906992361F094
:10047000DE015696808185FFFDCF80818064808378
:1004800096839D919111F6CF808185FFFDCF80816C
:10049000806480838DE08683808186FFFDCF8FE13D
:1004A00093E00197F1F700C00000809105018B7F78
:1004B000809305011C8A40E08FEF06C090EA9A9570
:1004C000F1F7815009F460C03FB7F89420912706F6
:1004D000909126063FBF291789F39FB7F894809122
:1004E0002706E82FF0E0EA5DFA4F208130912606DA
:1004F0008317A1F08F5F809327069FBF842F90E022
:100500002D30B1F0833191053CF4E1E0F0E0EC0FE7
:10051000FD1FE80FF91F20834F5FCECF80910501AB
:100520008F77809305019FBF842F90E02D3051F786
:100530008331910524F4FE01E80FF91F1182443044
:1005400018F12981332727FD3095C701C096281758
:100550003907D1F48A818A35B9F48B81861314C0A6
:100560008C81882389F04AE050E0BE01675D7F4FAF
:10057000CE0104960E948217F80171836083E9A579
:10058000FAA581E09081911180E0AB960FB6F894C6
:10059000DEBF0FBECDBFDF91CF911F910F91FF90B6
:1005A000EF90089508950F931F93CF93DF93CDB7E6
:1005B000DEB7EC970FB6F894DEBF0FBECDBF082FA5
:1005C0001F928F932BEB32E03F932F931F9214E1F6
:1005D0001F939E01275D3F4F3F932F930E941F194A
:1005E0001F920F9381EC92E09F938F931F921F9322
:1005F0008E010B5E1F4F1F930F930E941F19809156
:1006000005018460809305018FE193E00197F1F784
:1006100000C0000099A50FB6F894DEBF0FBECDBF95
:10062000E0912806F0912906992361F0DE019A965F
:10063000808185FFFDCF80818064808396839D913A
:100640009111F6CF808185FFFDCF8081806480830A
:100650008DE08683808186FFFDCF8FE193E0019757
:10066000F1F700C00000809105018B7F80930501A8
:100670001C8A80E09FEF05C0E0EAEA95F1F791500F
:10068000D9F14FB7F89430912706209126064FBF35
:10069000321791F32FB7F89490912706E92FF0E0E5
:1006A000EA5DFA4F4081309126069317A1F09F5FD3
:1006B000909327062FBF4D30B1F0282F30E0233123
:1006C00031053CF4E1E0F0E0EC0FFD1FE20FF31F19
:1006D00040838F5FCFCF909105019F779093050165
:1006E0002FBF4D3051F790E0833191053CF4FE016E
:1006F000E80FF91F118202C080E090E0F80101903C
:100700000020E9F7AF0141505109401B510B8417FC
:100710009507A8F0BE016F5F7F4FC8010E94C41803
:100720009C0181E0232B59F4EC960FB6F894DEBFC0
:100730000FBECDBFDF91CF911F910F91089580E043
:10074000F3CFCF93DF931F921F92CDB7DEB7AE01E9
:100750004F5F5F4F60E50E94F901882351F0898166
:100760009A81843091052CF40F900F90DF91CF91F6
:1007700008958FEFF9CFCF93DF93CDB7DEB76497AE
:100780000FB6F894DEBF0FBECDBF1F926F931F92BE
:100790008F9387EC92E09F938F931F9284E18F93C6
:1007A000CE0101969F938F930E941F19809105019E
:1007B0008460809305018FE193E00197F1F700C019
:1007C000000099810FB6F894DEBF0FBECDBFE09157
:1007D0002806F0912906992361F0DE0112968081A6
:1007E00085FFFDCF80818064808396839D919111E8
:1007F000F6CF808185FFFDCF8081806480838DE08E
:100800008683808186FFFDCF8FE193E00197F1F72A
:1008100000C00000809105018B7F8093050110923C
:10082000FFFF8FEF05C090EA9A95F1F78150E1F054
:100830003FB7F89420912706909126063FBF2917CD
:1008400091F32FB7F89480912706E82FF0E0EA5D46
:10085000FA4F908130912606831779F08F5F80934D
:1008600027062FBF9D30E9F664960FB6F894DEBFD9
:100870000FBECDBFDF91CF910895809105018F7795
:1008800080930501EECF0F931F93CF93DF93CDB7E6
:10089000DEB7EC970FB6F894DEBF0FBECDBF082FC2
:1008A0001F928F932EEC32E03F932F931F9214E10F
:1008B0001F939E01275D3F4F3F932F930E941F1967
:1008C0001F920F9385ED92E09F938F931F921F933A
:1008D0008E010B5E1F4F1F930F930E941F19809173
:1008E00005018460809305018FE193E00197F1F7A2
:1008F00000C0000099A50FB6F894DEBF0FBECDBFB3
:10090000E0912806F0912906992361F0DE019A967C
:10091000808185FFFDCF80818064808396839D9157
:100920009111F6CF808185FFFDCF80818064808327
:100930008DE08683808186FFFDCF8FE193E0019774
:10094000F1F700C00000809105018B7F80930501C5
:100950001C8A80E09FEF05C0E0EAEA95F1F791502C
:10096000D9F14FB7F89430912706209126064FBF52
:10097000321791F32FB7F89490912706E92FF0E002
:10098000EA5DFA4F4081309126069317A1F09F5FF0
:10099000909327062FBF4D30B1F0282F30E0233140
:1009A00031053CF4E1E0F0E0EC0FFD1FE20FF31F36
:1009B00040838F5FCFCF909105019F779093050182
:1009C0002FBF4D3051F790E0833191053CF4FE018B
:1009D000E80FF91F118202C080E090E0F801019059
:1009E0000020E9F7AF0141505109401B510B84171A
:1009F0009507A8F0BE016F5F7F4FC8010E94C41821
:100A00009C0181E0232B59F4EC960FB6F894DEBFDD
:100A10000FBECDBFDF91CF911F910F91089580E060
:100A2000F3CFCF93DF93CDB7DEB7A8970FB6F89487
:100A3000DEBF0FBECDBF7F936F931F928F938CED60
:100A400092E09F938F931F9284E18F93CE014596FE
:100A50009F938F930E941F1980910501846080935A
:100A600005018FE193E00197F1F700C000009D8937
:100A70000FB6F894DEBF0FBECDBFE0912806F0910F
:100A80002906992361F0DE015696808185FFFDCF0E
:100A900080818064808396839D919111F6CF8081BF
:100AA00085FFFDCF8081806480838DE08683808197
:100AB00086FFFDCF8FE193E00197F1F700C00000C2
:100AC000809105018B7F809305011C8A40E08FEFA8
:100AD00005C090EA9A95F1F7815091F13FB7F894EB
:100AE00020912706909126063FBF291791F39FB7C3
:100AF000F89480912706E82FF0E0EA5DFA4F208114
:100B0000309126068317A1F08F5F809327069FBF41
:100B10002D30B1F0842F90E0833191053CF4E1E079
:100B2000F0E0EC0FFD1FE80FF91F20834F5FCFCFE0
:100B3000809105018F77809305019FBF2D3051F77C
:100B4000A8960FB6F894DEBF0FBECDBFDF91CF9150
:100B50000895CF93DF93CDB7DEB7A8970FB6F8947B
:100B6000DEBF0FBECDBF7F936F931F928F9383EE37
:100B700092E09F938F931F9284E18F93CE014596CD
:100B80009F938F930E941F19809105018460809329
:100B900005018FE193E00197F1F700C000009D8906
:100BA0000FB6F894DEBF0FBECDBFE0912806F091DE
:100BB0002906992361F0DE015696808185FFFDCFDD
:100BC00080818064808396839D919111F6CF80818E
:100BD00085FFFDCF8081806480838DE08683808166
:100BE00086FFFDCF8FE193E00197F1F700C0000091
:100BF000809105018B7F809305011C8A40E08FEF77
:100C000005C090EA9A95F1F7815091F13FB7F894B9
:100C100020912706909126063FBF291791F39FB791
:100C2000F89480912706E82FF0E0EA5DFA4F2081E2
:100C3000309126068317A1F08F5F809327069FBF10
:100C40002D30B1F0842F90E0833191053CF4E1E048
:100C5000F0E0EC0FFD1FE80FF91F20834F5FCFCFAF
:100C6000809105018F77809305019FBF2D3051F74B
:100C7000A8960FB6F894DEBF0FBECDBFDF91CF911F
:100C80000895AB0169E40C94F901AB0163E70C949E
:100C9000F901CF93CFB7F89446E150E060E070E0FF
:100CA0008EE296E00E94641B80913006909131069E
:100CB000019669F080912E0690912F06803891055B
:100CC00030F480E0CFBF811110C0CF91089584E04F
:100CD00090E0909331068093300610922F06109288
:100CE0002E0681E0CFBF882381F38AEE92E0CF9178
:100CF0000C94F018CF93282FCB01CFB7F89433E1A1
:100D0000239FB00111246A5E7F4F43E150E00E94AF
:100D1000641BCFBFCF910895CF93282FCB01CFB7BE
:100D2000F89433E1239FB00111246A5E7F4F43E1C1
:100D300050E00E94741BCFBFCF910895CF93CFB7DF
:100D4000F89446E150E060E070E08EE296E00E94A8
:100D5000741BCFBFCF9108950F931F93CF93DF9351
:100D6000CDB7DEB7C156D1090FB6F894DEBF0FBEBE
:100D7000CDBF982F8B01853009F407C4B8F08830B7
:100D800009F419C308F0D1C0863009F422C28730B3
:100D900009F488C1CF59DF4F0FB6F894DEBF0FBEFC
:100DA000CDBFDF91CF911F910F910895823009F44B
:100DB00090C308F4C5C0833009F4AFC2843051F742
:100DC000443141F7A2968FAFA2970E942813A296B2
:100DD0009FADA2978111DECFB8016F5F7F4FF80101
:100DE0008081A2969FAFA2970E94550D2FEF2F965C
:100DF0002FAF2F978AE060968FAF6097A2969FAD36
:100E0000A29761969FAF619762961FAE629781EF3E
:100E100063968FAF63978DE064968FAF64979FB7AB
:100E2000F894E09122048E2F8F5F30912304831772
:100E300031F0F0E0EE5DFC4F2083809322049FBFF1
:100E400060962FAD60979FB7F894E09122048E2FA3
:100E50008F5F30912304831731F0F0E0EE5DFC4F9B
:100E60002083809322049FBF61962FAD61979FB727
:100E7000F894E09122048E2F8F5F30912304831722
:100E800031F0F0E0EE5DFC4F2083809322049FBFA1
:100E900062962FAD62979FB7F894E09122048E2F4F
:100EA0008F5F30912304831731F0F0E0EE5DFC4F4B
:100EB0002083809322049FBF63962FAD63979FB7D3
:100EC000F894E09122048E2F8F5F309123048317D2
:100ED00031F0F0E0EE5DFC4F2083809322049FBF51
:100EE00064969FAD64972FB7F894E09122048E2FFB
:100EF0008F5F30912304831731F0F0E0EE5DFC4FFB
:100F00009083809322042FBFE0914907F0914A0714
:100F10008181806281832FB7F8949091230480911E
:100F200022042FBF9813F7CF35CF8930E1F08A30F4
:100F300009F030CFCB010E945F130E94D3152ACF56
:100F40008823A1F0813009F025CF48E050E062E12C
:100F500072E0C8010E94B718009709F01BCFF894FF
:100F60000D9400FC17CF0E94611614CF9FEF6B9673
:100F70009FAF6B978AE06C968FAF6C976D961FAEA4
:100F80006D976E961FAE6E9785EF6F968FAF6F97CA
:100F90008DE0A0968FAFA0972FB7F894E091220430
:100FA0008E2F8F5F30912304831731F0F0E0EE5DD8
:100FB000FC4F9083809322042FBF6C962FAD6C97CB
:100FC0009FB7F894E09122048E2F8F5F3091230415
:100FD000831731F0F0E0EE5DFC4F20838093220414
:100FE0009FBF6D962FAD6D979FB7F894E091220447
:100FF0008E2F8F5F30912304831731F0F0E0EE5D88
:10100000FC4F2083809322049FBF6E962FAD6E9776
:101010009FB7F894E09122048E2F8F5F30912304C4
:10102000831731F0F0E0EE5DFC4F208380932204C3
:101030009FBF6F962FAD6F979FB7F894E0912204F2
:101040008E2F8F5F30912304831731F0F0E0EE5D37
:10105000FC4F2083809322049FBFA0962FADA097C2
:101060009FB7F894E09122048E2F8F5F3091230474
:10107000831731F0F0E0EE5DFC4F20838093220473
:101080009FBFE0914907F0914A0781818062818387
:101090002FB7F89490912304809122042FBF9813C6
:1010A000F7CF78CE2FEF2CAF8AE08DAF9EAF1FAE7B
:1010B0008EEE21968FAF21978DE022968FAF2297EB
:1010C0009FB7F894E09122048E2F8F5F3091230414
:1010D000831731F0F0E0EE5DFC4F20838093220413
:1010E0009FBF2DAD9FB7F894E09122048E2F8F5FA4
:1010F00030912304831731F0F0E0EE5DFC4F208344
:10110000809322049FBF2EAD9FB7F894E0912204F4
:101110008E2F8F5F30912304831731F0F0E0EE5D66
:10112000FC4F2083809322049FBF2FAD9FB7F8947C
:10113000E09122048E2F8F5F30912304831731F0CA
:10114000F0E0EE5DFC4F2083809322049FBF219648
:101150002FAD21979FB7F894E09122048E2F8F5FD7
:1011600030912304831731F0F0E0EE5DFC4F2083D3
:10117000809322049FBF22962FAD22979FB7F894A9
:10118000E09122048E2F8F5F30912304831731F07A
:10119000F0E0EE5DFC4F2083809322049FBFE0913E
:1011A0004907F0914A078181806281832FB7F894C3
:1011B00090912304809122042FBF9813F7CF0E94AF
:1011C00028138111E7CDF801808181700E94690F99
:1011D000E1CDA2968FAFA2970E94630D2FEF2396C9
:1011E0002FAF23978AE024968FAF2497A2969FADC6
:1011F000A29725969FAF259726961FAE26978FEE2E
:1012000027968FAF27978DE028968FAF28979FB7A7
:10121000F894E09122048E2F8F5F3091230483177E
:1012200031F0F0E0EE5DFC4F2083809322049FBFFD
:1012300024962FAD24979FB7F894E09122048E2F27
:101240008F5F30912304831731F0F0E0EE5DFC4FA7
:101250002083809322049FBF25962FAD25979FB7AB
:10126000F894E09122048E2F8F5F3091230483172E
:1012700031F0F0E0EE5DFC4F2083809322049FBFAD
:1012800026962FAD26979FB7F894E09122048E2FD3
:101290008F5F30912304831731F0F0E0EE5DFC4F57
:1012A0002083809322049FBF27962FAD27979FB757
:1012B000F894E09122048E2F8F5F309123048317DE
:1012C00031F0F0E0EE5DFC4F2083809322049FBF5D
:1012D00028962FAD28979FB7F894E09122048E2F7F
:1012E0008F5F30912304831731F0F0E0EE5DFC4F07
:1012F0002083809322049FBFE0914907F0914A0721
:101300008181806281832FB7F8949091230480912A
:1013100022042FBF9813F7CF3DCD413009F03ACDCD
:101320008FEF8D8F8AE08E8F9F8F83E188A38DE072
:101330008DABBE016F5D7F4FF80180810E947A0600
:1013400038A19F8D8E8D980F930F332341F0FE01AE
:10135000B19680E02191920F8F5F8313FBCF909520
:101360009CABDE015D96CE01C6965D913FB7F894C9
:10137000E09122042E2F2F5F40912304241731F097
:10138000F0E0EE5DFC4F5083209322043FBFA8178E
:10139000B90759F7E0914907F0914A0781818062C6
:1013A00081832FB7F89490912304809122042FBF5A
:1013B0009813F7CFEFCCA2968FAFA2970E94241379
:1013C0002FEF2EAB8AE08FABA2969FADA29798AF7E
:1013D00019AE8DEE8AAF8DE08BAF9FB7F894E09198
:1013E00022048E2F8F5F30912304831731F0F0E0B9
:1013F000EE5DFC4F2083809322049FBF2FA99FB7EF
:10140000F894E09122048E2F8F5F3091230483178C
:1014100031F0F0E0EE5DFC4F2083809322049FBF0B
:1014200028AD9FB7F894E09122048E2F8F5F309102
:101430002304831731F0F0E0EE5DFC4F20838093AE
:1014400022049FBF29AD9FB7F894E09122048E2F0C
:101450008F5F30912304831731F0F0E0EE5DFC4F95
:101460002083809322049FBF2AAD9FB7F894E09118
:1014700022048E2F8F5F30912304831731F0F0E028
:10148000EE5DFC4F2083809322049FBF2BAD9FB75E
:10149000F894E09122048E2F8F5F309123048317FC
:1014A00031F0F0E0EE5DFC4F2083809322049FBF7B
:1014B000E0914907F0914A078181806281832FB7CB
:1014C000F89490912304809122042FBF9813F7CFB2
:1014D00061CCA1964FAFA197A2968FAFA2970E9421
:1014E0002813A1964FADA197A2969FADA297811107
:1014F00051CC463109F4E8C041114CCC8FEF8983BF
:101500008AE08A839B8386E18C839DE09C8FEEE258
:10151000F6E0DE01159601900D928A95E1F7FE0145
:101520003596DE011196CE014B9622E23191230FC2
:10153000E817F907D9F720952B8FCD014C965D91CF
:101540003FB7F894E09122042E2F2F5F409123049F
:10155000241731F0F0E0EE5DFC4F5083209322041D
:101560003FBFA817B90759F7E0914907F0914A071B
:101570008181806281832FB7F894909123048091B8
:1015800022042FBF9813F7CF05CC2FEF65962FAF0E
:1015900065978AE066968FAF669767969FAF679765
:1015A00068961FAE689780EF69968FAF69978DE058
:1015B0006A968FAF6A979FB7F894E09122048E2FB6
:1015C0008F5F30912304831731F0F0E0EE5DFC4F24
:1015D0002083809322049FBF66962FAD66979FB7A6
:1015E000F894E09122048E2F8F5F309123048317AB
:1015F00031F0F0E0EE5DFC4F2083809322049FBF2A
:1016000067962FAD67979FB7F894E09122048E2FCD
:101610008F5F30912304831731F0F0E0EE5DFC4FD3
:101620002083809322049FBF68962FAD68979FB751
:10163000F894E09122048E2F8F5F3091230483175A
:1016400031F0F0E0EE5DFC4F2083809322049FBFD9
:1016500069962FAD69979FB7F894E09122048E2F79
:101660008F5F30912304831731F0F0E0EE5DFC4F83
:101670002083809322049FBF6A962FAD6A979FB7FD
:10168000F894E09122048E2F8F5F3091230483170A
:1016900031F0F0E0EE5DFC4F2083809322049FBF89
:1016A000E0914907F0914A078181806281832FB7D9
:1016B000F89490912304809122042FBF9813F7CFC0
:1016C00081E08093480666CB86E1F801AEE2B6E0A1
:1016D00001900D928A95E1F7A2969FAFA2970E9482
:1016E000D60D2FEF29962FAF29978AE02A968FAF34
:1016F0002A97A2969FADA2972B969FAF2B972C96D9
:101700001FAE2C9783EF2D968FAF2D978DE02E96E1
:101710008FAF2E979FB7F894E09122048E2F8F5FA2
:1017200030912304831731F0F0E0EE5DFC4F20830D
:10173000809322049FBF2A962FAD2A979FB7F894D3
:10174000E09122048E2F8F5F30912304831731F0B4
:10175000F0E0EE5DFC4F2083809322049FBF2B9628
:101760002FAD2B979FB7F894E09122048E2F8F5FB7
:1017700030912304831731F0F0E0EE5DFC4F2083BD
:10178000809322049FBF2C962FAD2C979FB7F8947F
:10179000E09122048E2F8F5F30912304831731F064
:1017A000F0E0EE5DFC4F2083809322049FBF2D96D6
:1017B0002FAD2D979FB7F894E09122048E2F8F5F65
:1017C00030912304831731F0F0E0EE5DFC4F20836D
:1017D000809322049FBF2E962FAD2E979FB7F8942B
:1017E000E09122048E2F8F5F30912304831731F014
:1017F000F0E0EE5DFC4F2083809322049FBFE091D8
:101800004907F0914A078181806281832FB7F8945C
:1018100090912304809122042FBF9813F7CFBACA66
:1018200090914706933009F467C050F0953091F1DC
:10183000A0F0963009F449C01092470680E0089560
:10184000913009F451C0E8F0809346068B30A0F740
:1018500083E08093470680E0089590914406E92F45
:10186000F0E0E75BF94F8083892F8F5F8093440618
:10187000909145068913E2CF85E08093470680E08A
:101880000895109244068F3FC9F681E08093470681
:1018900080E008952091450690914606920F965F4C
:1018A000222359F0E9E4F6E0215030E0265B394F7D
:1018B0004191940FE217F307D9F790959813BCCF95
:1018C00086E08093470680E00895109247068D30A9
:1018D00009F0B4CF4091450669E476E08091460670
:1018E0000E94AC0681E008958A3009F0A5CF82E01D
:1018F0008093470680E0089580934506882309F485
:10190000BBCF84E08093470680E00895CF93C0E08A
:101910008091480681112FC02FB7F894909125052A
:10192000809124052FBF9817E9F02FB7F894909174
:101930002505E92FF0E0EC5DFB4F80813091240517
:10194000931751F09F5F909325052FBF0E94100CB5
:10195000882311F3C0E0E0CF909105019F77909329
:101960000501F3CF8FE99FE00197F1F700C0000078
:10197000CF5FCF3F69F610924806CF9108951F922E
:101980000F920FB60F9211244F935F936F937F9333
:101990008F939F93AF93BF938091E4109091E51044
:1019A000A091E610B091E7100196A11DB11D8093A2
:1019B000E4109093E510A093E610B093E7108091A7
:1019C000E8109091E910A091EA10B091EB10019607
:1019D000A11DB11D8093E8109093E910A093EA1027
:1019E000B093EB108091DF10811115C04091E81089
:1019F0005091E9106091EA107091EB108091E01025
:101A00009091E110A091E210B091E31048175907AE
:101A10006A077B0710F58091E8109091E910A0917A
:101A2000EA10B091EB108F779927AA27BB27892B53
:101A30008A2B8B2B29F48091050180588093050116
:101A4000BF91AF919F918F917F916F915F914F91D6
:101A50000F900FBE0F901F90189581E08093DF10BC
:101A6000DACF1F93CF93DF930E94490680912E0611
:101A700090912F06892BA9F0C0E0D0E013E11C9FC4
:101A8000B0011D9F700D1124615A784F8C2F0E9458
:101A90007A06219680912E0690912F06C817D907B5
:101AA00070F3DF91CF911F91089587FD0BC093E1F3
:101AB000989FD0011124A15AB84FFB0101900D92BB
:101AC0009A95E1F708951F93CF93DF9380912E06A7
:101AD00090912F06892BA9F0C0E0D0E013E11C9F64
:101AE000B0011D9F700D1124615A784F8C2F0E94F8
:101AF0008C06219680912E0690912F06C817D90743
:101B000070F3DF91CF911F910C949E06BF92CF92FC
:101B1000DF92EF92FF920F931F93CF93DF931F9269
:101B20001F92CDB7DEB76C0180E0EE24EA94FE2C64
:101B3000082F10E02091300630913106021713076C
:101B400018F5B82EB394BE016F5F7F4F8B2D0E94A6
:101B50004106882399F0F8013196EE0FFF1FEC0D36
:101B6000FD1D20813181305449815A81241B350B60
:101B700037FD06C0E216F3060CF479018B2DD8CFA1
:101B8000319521953109F6CF81E092E3E916F10410
:101B900008F080E00F900F90DF91CF911F910F918F
:101BA000FF90EF90DF90CF90BF900895DF92EF927B
:101BB000FF920F931F93CF93DF93CDB7DEB7659757
:101BC0000FB6F894DEBF0FBECDBFBE016F5F7F4F73
:101BD00080E00E947A0680E0EE24EA94FE2C082F32
:101BE00010E020913006309131060217130738F5C6
:101BF000D82ED394BE016C5E7F4F8D2D0E9441067E
:101C00008823B9F0F8013196EE0FFF1F81E090E0D4
:101C10008C0F9D1FE80FF91F2081318130544C89B2
:101C20005D89241B350B37FD06C0E216F3060CF464
:101C300079018D2DD4CF319521953109F6CF11E061
:101C400092E3E916F10448F48B898130B1F08230D7
:101C500029F480E00E94B01301C010E0812F659646
:101C60000FB6F894DEBF0FBECDBFDF91CF911F91AD
:101C70000F91FF90EF90DF90089581E00E94B013E4
:101C8000EDCFCF92DF92EF92FF920F931F93CF93FE
:101C9000DF931F921F92CDB7DEB71092E81010921B
:101CA000E9101092EA101092EB1089EF90E09093F7
:101CB0008900809388001092800022E020936F00BA
:101CC0002BE02093810090938900809388001092EC
:101CD0008500109284002FB7F8948091E8109091BD
:101CE000E910A091EA10B091EB10805C904EAF4FDC
:101CF000BF4F8093E0109093E110A093E210B09357
:101D0000E3101092E4101092E5101092E610109279
:101D1000E7101092DF102FBFF12C8091DF10882385
:101D200021F18091300690913106892B81F010E0ED
:101D30001F5F60E070E0812F0E94A905412F50E0F5
:101D400020913006309131064217530788F31092E4
:101D5000810080E00F900F90DF91CF911F910F9144
:101D6000FF90EF90DF90CF90089580915E078111F2
:101D7000D8CF8091300690913106892B09F492C01A
:101D8000D12C00E010E0F801EE0FFF1FEE5CF94FE0
:101D900020813181D394AEE5B0E00E941217672F05
:101DA000782F892F992787FD9A958D2D0E94A90557
:101DB000F801EE0FFF1FEF59F84F608171818D2DF3
:101DC0000E941105B801660F771F635B784F8D2D58
:101DD0000E94410620913006309131060D2D10E011
:101DE0000217130780F280E0CC24CA94DC2C09C0CF
:101DF000C216D3060CF469012091300630913106E9
:101E00008E2D082F10E002171307E0F4E82EE3945C
:101E1000BE016F5F7F4F8E2D0E944106882361F3C4
:101E2000F801EE0FFF1FEF59F84F20813181305438
:101E300049815A81241B350B37FFDACF3195219523
:101E40003109D6CF82E3C816D10450F5F3948AE065
:101E5000F81209C02AC09F5F909325052FBF0E94EA
:101E6000100C81115ACF2FB7F894909125058091CD
:101E700024052FBF981709F450CF2FB7F8949091ED
:101E80002505E92FF0E0EC5DFB4F808130912405C2
:101E90009313E1CF909105019F7790930501DECFD9
:101EA000F12CE1CF20E030E09ECF109281008091B4
:101EB0007107813021F0823039F081E04BCF81E031
:101EC0000E94B01381E046CF80E00E94B01381E011
:101ED00041CF2F923F924F925F926F927F928F925B
:101EE0009F92AF92BF92CF92DF92EF92FF920F93A9
:101EF0001F93CF93DF93CDB7DEB7AE970FB6F894AD
:101F0000DEBF0FBECDBF8FA310925E0781E080932E
:101F10005D07BE016F5F7F4F80E00E947A0620E080
:101F20000FEF1FEFE22EF12C8091300690913106D9
:101F3000E816F90620F5D22ED394BE016C5E7F4FD1
:101F40008D2D0E9441068823C1F0F7013196EE0FD6
:101F5000FF1FEE24E394F12CEC0EFD1EEE0DFF1D91
:101F60002081318130544C895D89241B350B37FD2C
:101F70002DC0021713070CF489012D2DD3CF023386
:101F8000110508F452C30E94410E91E098279093E6
:101F90005E079923F9F010925D07AE960FB6F8949C
:101FA000DEBF0FBECDBFDF91CF911F910F91FF908C
:101FB000EF90DF90CF90BF90AF909F908F907F90E9
:101FC0006F905F904F903F902F900895319521959D
:101FD0003109CFCF80917107813009F422C382305B
:101FE00019F480E00E94B0131092E8101092E910EA
:101FF0001092EA101092EB1089EF90E09093890014
:10200000809388001092800022E020936F002BE0E4
:10201000209381009093890080938800109285001E
:10202000109284000FA121E028A7D22ECD2CD12C14
:10203000DCA2CBA280912E0690912F06C816D9065D
:1020400008F070C0960176012150310943E1429FAA
:102050006001439FD00C11249601215A384F3EA3B2
:102060002DA34E9D60014F9DD00C11249601215A45
:10207000384F3F8F2E8F0197E816F90609F4CCC22E
:1020800020913006309131062115310539F040E0BC
:102090004F5F842F90E082179307D0F3AE8DBF8DF2
:1020A0008D919C91A0E0B0E02FB7F8944091E8109A
:1020B0005091E9106091EA107091EB10840F951F18
:1020C000A61FB71F8093E0109093E110A093E21039
:1020D000B093E3101092E4101092E5101092E61005
:1020E0001092E7101092DF102FBF8091DF1088232D
:1020F000A9F080915E07811115C0AE8DBF8D5296FB
:102100008C91813009F484C2823019F480E00E94FD
:10211000B013B8A5BF5FB8A7DB2E88CF80915E074C
:10212000882389F0002309F479C2EFA0E11002C0EE
:102130000E94B61380915E07811170C20FA131E039
:1021400038A7D32E73CF8091300690913106892B1A
:1021500009F493C08FB7F8944090E4105090E510C4
:102160006090E6107090E7108FBF2090420630908C
:102170004306420C531C611C711C8091DF108111BD
:102180007CC011E00AA3812F8150C82ED12CD9A286
:10219000C8A2B6016F5F7F4F660F771FEDA1FEA14A
:1021A000E60FF71F20813181EE8DFF8DE60FF71FBF
:1021B000808191816C01E12CF12CD701C6019054F2
:1021C000A109B1098E8B9F8BA88FB98FAE8DBF8D62
:1021D0008D909C90A12CB12C84149504A604B70476
:1021E0000CF0E6C180912E0690912F06DFA04BA146
:1021F0005CA12E8D3F8D1B01D1105BC11A8F89010F
:102200009A014E895F89688D798D1CC02F5F3F4F81
:102210000D5E1F4FF801E20DF31DC080D180E12C4F
:10222000F12CE0E4DE1AE108F108D8018D909C90D1
:10223000A12CB12C84149504A604B7040CF058C04A
:10224000B701A601FC013297E217F30799F148188C
:1022500059086A087B08FC013197E217F307B1F6C9
:1022600021E030E002E717E0D5CF9F5F909325058E
:102270002FBF0E94100C811138CF2FB7F894909186
:102280002505809124052FBF981709F42ECF2FB76D
:10229000F89490912505E92FF0E0EC5DFB4F8081EB
:1022A000309124059313E1CF909105019F7790938E
:1022B0000501DECF2DA73EA749A75AA76BA77CA78C
:1022C0000E94AA132DA53EA549A55AA56BA57CA5DC
:1022D000882309F462C080912E0690912F06D801C0
:1022E0008D909C90B1E0BAA3A12CB12CB0CFAAA341
:1022F0004E8B5F8B688F798F1A8DCB01BA01A70146
:102300009601261B370B480B590BA8EEB3E00E9431
:102310002517A50194010E94401749015A012090F8
:102320004206309043068E899F89A88DB98D8A8F89
:102330009B8FAC8FBD8F232809F044C0B601705C21
:10234000812F0E941105B40197FC2BC1812F0E949F
:10235000A905212F30E08091300690913106281791
:102360003907C8F48FB7F8944090E4105090E51006
:102370006090E6107090E7108FBF2090420630907A
:102380004306420C531C611C711C8091DF101F5FBF
:10239000882309F4F8CE0AA170CF4E8B5F8B688F2B
:1023A000798F1A8D20904206309043066A017B0196
:1023B000CA8EDB8EEC8EFD8E812C912C540123284D
:1023C00009F4BCCFBE016C5E7F4F812F0E94410695
:1023D000882309F4D7C0E8A1F9A1EE0FFF1FEE5C36
:1023E000F94F208031809101A8E5BBE10E941217CE
:1023F000C72ED82EE92EFF24CE8ADF8AE88EF98EEA
:10240000A3019201C501B4010E94301728EE33E008
:1024100040E050E00E94401769017A012A8D3B8D0F
:102420004C8D5D8DC20ED31EE41EF51E8C899D89D8
:10243000AA2797FDA095BA2FA7019601281B390B53
:102440004A0B5B0BA8EEB3E00E94251720914206D1
:102450003091430640E050E00E944017D90137FD1B
:10246000D3C091010E941E1797FDC9C0472F582F56
:10247000692F772767FD7A95443651056105710507
:102480000CF075C084E6A82EB12CB601705C812FCB
:102490000E941105B501812F0E94A905E8A1F9A1AB
:1024A000EE0FFF1FE35BF84F8C899D89918380833A
:1024B00050CFAAA11A8F89019A014E895F89688D30
:1024C000798D1CC02F5F3F4F0D5E1F4FF801E20D4D
:1024D000F31DC080D180E12CF12CB0E4DB1AE108BF
:1024E000F108F80180809180A12CB12C841495040E
:1024F000A604B7040CF0FBCEB701A601FC0132978D
:10250000E217F30771F0481859086A087B08FC01C4
:102510003197E217F307B1F621E030E002E717E068
:10252000D5CF2DA73EA749A75AA76BA77CA70E9486
:10253000AA132DA53EA549A55AA56BA57CA5811179
:102540000BC080912E0690912F06D8018D909C9003
:10255000A1E0A12CB12CD7CF80912E0690912F060F
:10256000F80180809180A1E0A12CB12CCCCF8E8984
:102570009F89A88DB98D84179507A607B707ACF07A
:102580005A0183CF8091420690914306892B09F02E
:10259000E0CEB601705C812F0E941105B40197FE58
:1025A000D5CE719561957109D1CEAE88BF886DCFBA
:1025B0006901E12CF12CA701960130544109510920
:1025C0002A8F3B8F4C8F5D8F2E893F89488D598D87
:1025D000CA8CDB8CEC8CFD8C2C193D094E095F09F3
:1025E000A8EEB3E00E942517A50194010E944017B0
:1025F00049015A01CE88DF88E88CF98C9CCE615065
:102600007F4F8F4F9F4F32CFB195A195B10929CF01
:1026100081E00E94B0137DCD011132CD1092810076
:10262000BACC81E00E94B013DFCC8B89813041F0BD
:10263000823019F480E00E94B01390915E07A9CC1B
:1026400081E00E94B013F9CF81E080935E07089586
:1026500080915D070895CF93DF931F921F92CDB7AE
:10266000DEB78830E0F490915D07992371F0E82F90
:10267000F0E0EE0FFF1FE35BF84F20813181C901CD
:102680000F900F90DF91CF9108951A821982BE01A9
:102690006F5F7F4F8F5F0E944106811108C020E06D
:1026A00030E0C9010F900F90DF91CF9108952981FB
:1026B0003A81C9010F900F90DF91CF910895FF9259
:1026C0000F931F93CF93DF93EC0188A18823E1F050
:1026D000F12C0F2D10E0F394D801AA0FBB1FAC0F03
:1026E000BD1F6D917C918F2D0E941105F8013896C8
:1026F000EE0FFF1FEC0FFD1F608171818F2D0E9477
:10270000A90588A1F81628F389A1813041F082300B
:1027100071F0DF91CF911F910F91FF90089581E0AB
:10272000DF91CF911F910F91FF900C94B01380E037
:10273000DF91CF911F910F91FF900C94B01384E81B
:102740008093040182E084BB81E083BB18B887E0FA
:1027500087B9089582B38695817091E0892708959D
:10276000811102C040980895409A08953A98429A7B
:1027700080E0329B0FC08F5F8531D8F32FEF89EF58
:1027800090E0215080409040E1F700C00000429866
:102790003A9A089580E0EDCFCF93DF93CDB7DEB7BF
:1027A00064970FB6F894DEBF0FBECDBF88E10FB6B9
:1027B000F89480936000109260000FBE8FEF8F87B7
:1027C0008AE0888B198A1A8A85EF8B8B8DE08C8B37
:1027D00060E170E080911A0390911B030E94130145
:1027E00060E170E080911C0390911D030E94130131
:1027F0000E949F130E94D202809105018B7F8093DB
:1028000005018091050180688093050187EC90E0C7
:102810009A8789871C861B8682E08C831E861D868C
:10282000CE0101969093F3108093F21078948AE190
:1028300092E00E94F0180E9449060E94310D82E346
:1028400090E0EFE3FCE93197F1F700C00000019759
:10285000C1F782E392E00E94F018E12C8E01015F43
:102860001F4F96E5A92E92E0B92E2FE6622E22E0A8
:10287000722E0E94AA13811174C02FB7F894909100
:102880002505809124052FBF981799F3FFEF29EFB5
:1028900080E0F15020408040E1F700C000008091CE
:1028A00005018460809305019AE69A95F1F700C0CE
:1028B000EAE6EA95F1F700C0F12C9FB7F894809111
:1028C0002505E82FF0E0EC5DFB4F208130912405D9
:1028D000831709F4BCC08F5F809325059FBFF80163
:1028E000EF0DF11D8081281709F4BDC0E0911C0394
:1028F000F0911D03FF2069F0D8019D91808185FF33
:10290000FDCF80818064808396838A2F801B8F1502
:10291000A0F3808185FFFDCF808180648083268342
:10292000F12C2FB7F89490912505809124052FBFA5
:102930009813C3CFE0911C03F0911D03808186FFA3
:10294000FDCF8FE891E00197F1F700C00000809182
:1029500005018B7F809305010E94AA13882309F447
:102960008CCF80E00E941D01E110D4C081E492E090
:102970000E94F018312C22242394FFEF23EC89E0ED
:10298000F15020408040E1F700C000008091300607
:1029900090913106892B09F4DFC099249394442443
:1029A0004394EE24E394F12C28C0E2E1F3E0CE0E50
:1029B000DF1EF601808181119BC0842D0E9443049B
:1029C000F6018083882309F499C0FF92EF928BE58A
:1029D00092E09F938F930E94D2180F900F900F90C8
:1029E0000F90912C4394E42CF12C209130063091DF
:1029F00031062E153F0508F49EC0842D0E94A103C8
:102A0000582E670191E0C91AD108F601E050FE4F37
:102A10008083282F332727FD30953F938F93BF92D4
:102A2000AF920E94D2180F900F900F900F90EFEF7F
:102A30005E1609F448C0552009F4B7CFF601EE5EE2
:102A4000FC4F208221E05212CDCF912CCBCF809130
:102A500005018F77809305019FBFF801EF0DF11DF0
:102A60008081281343CFF394F6E0FF125ACF8FB73B
:102A7000F89490912405909325058FBF80910501CE
:102A8000806880930501809105018B7F809305010B
:102A900080E00E941D0140E060E070E080E00E9464
:102AA000AC060E94860C81E00E941D018091050108
:102AB0008460809305018FB7F894909124059093DA
:102AC00025058FBF2ECF3394F8EC3F12BECF109266
:102AD0002F0610922E06809105018F7780930501B5
:102AE0000E94D60D81E00E941D01EE24E394C1CE28
:102AF00061E0842D0E94BB03912C74CFFF92EF9272
:102B00007F926F920E94D2180F900F900F900F90AB
:102B1000912C68CF0E94D60D811115C08BE892E0F0
:102B20000E94F0180E94410E882389F084EA92E006
:102B30000E94F018D7CF8AE090E00E94EA1899200E
:102B400009F41BCFC8CF80E00E94690FCBCF8CEA7D
:102B500092E00E94F018C6CF8AE090E00E94EA1846
:102B6000BACF809108029091090290931B03809341
:102B70001A0380910E0290910F0290931D0380938F
:102B80001C030895809108029091090290932B06EE
:102B900080932A0680910E0290910F02909329064D
:102BA000809328060895DF92EF92FF920F931F9370
:102BB000CF93DF93CDB7DEB768970FB6F894DEBF3B
:102BC0000FBECDBF8FEF89838AE08A838B8382E13A
:102BD0008C838DE0888F809130068D831E820E94C9
:102BE0002813882311F081E08E8380913006909124
:102BF0003106892B09F45FC0D12C00E010E0EE24EF
:102C0000E394F12CEC0EFD1E8D2D0E942B13F80188
:102C10003396EE0FFF1FEE0DFF1D91838083D3943B
:102C20000D2D10E020913006309131060217130768
:102C300058F3FE013596D701CE01479626E2319131
:102C4000230FE817F907D9F720952F8BC70148966E
:102C50005D913FB7F894E09122042E2F2F5F4091B1
:102C60002304241731F0F0E0EE5DFC4F50832093F5
:102C700022043FBFA817B90759F7E0914907F0911F
:102C80004A078181806281832FB7F8949091230451
:102C9000809122042FBF9813F7CF68960FB6F8944F
:102CA000DEBF0FBECDBFDF91CF911F910F91FF907F
:102CB000EF90DF900895EE24E394F12CEC0EFD1ECE
:102CC000B8CFDF92EF92FF920F931F93CF93DF93D2
:102CD000CDB7DEB768970FB6F894DEBF0FBECDBF95
:102CE0008FEF89838AE08A8389E08B8382E18C83FA
:102CF0008DE0888F809130068D831E820E9428137C
:102D0000882311F081E08E83809130069091310606
:102D1000892B09F45FC0D12C00E010E0EE24E3948D
:102D2000F12CEC0EFD1E8D2D0E942B13F801339615
:102D3000EE0FFF1FEE0DFF1D91838083D3940D2DA9
:102D400010E020913006309131060217130758F336
:102D5000FE013596D701CE01479625E23191230F2A
:102D6000E817F907D9F720952F8BC70148965D9191
:102D70003FB7F894E09122042E2F2F5F4091230457
:102D8000241731F0F0E0EE5DFC4F508320932204D5
:102D90003FBFA817B90759F7E0914907F0914A07D3
:102DA0008181806281832FB7F89490912304809170
:102DB00022042FBF9813F7CF68960FB6F894DEBFA2
:102DC0000FBECDBFDF91CF911F910F91FF90EF907C
:102DD000DF900895EE24E394F12CEC0EFD1EB8CFA5
:102DE000809108029091090290934A0780934907C5
:102DF00080910E0290910F0290934C0780934B07A5
:102E0000089580910802909109029093ED108093AB
:102E1000EC1080910E0290910F029093EF1080932E
:102E2000EE100895A29FB001B39FC001A39F01D0EF
:102E3000B29F700D811D1124911D08950E941217DB
:102E4000B7FF0895821B930B08950E941217A59F48
:102E5000900DB49F900DA49F800D911D1124089595
:102E6000DB018F939F930E942517BF91AF91A29F83
:102E7000800D911DA39F900DB29F900D1124089578
:102E8000052E97FB16F4009407D057FD0DD00E9435
:102E90005C1707FC09D07EF490958095709561953C
:102EA0007F4F8F4F9F4F08955095409530952195B6
:102EB0003F4F4F4F5F4F0895A1E21A2EAA1BBB1B35
:102EC000FD010DC0AA1FBB1FEE1FFF1FA217B307F6
:102ED000E407F50720F0A21BB30BE40BF50B661F0C
:102EE000771F881F991F1A9469F7609570958095D0
:102EF00090959B01AC01BD01CF0108950790F6911B
:102F0000E02D19944F925F926F927F928F929F92D1
:102F1000AF92BF92CF92DF92EF92FF920F931F93E7
:102F2000CF93DF932B018A016115710519F0FB0125
:102F3000808391830115110539F0980122503109E0
:102F40002332310508F0E6C07C01F701C1917F0111
:102F50003F018C2F90E00E94AF18892BB1F7CD3242
:102F600029F4F701C1913F01D1E006C0CB3219F439
:102F7000F701C1913F01D0E00115110509F4D8C056
:102F80000031110581F4D0C0F3018081883719F038
:102F9000883509F0C3C0F301C181F2E06F0E711CE6
:102FA000D26000E110E008301105D9F024F40230BD
:102FB0001105F9F407C00A30110551F0003111056F
:102FC000C1F425C0C12CD12CE12C30E4F32E24C057
:102FD0000AE010E02CECC22EDC2CEC2C2CE0F22EC3
:102FE0001BC008E010E0C12CD12CE12C90E1F92E9F
:102FF00013C09801442737FD4095542F60E070E0DE
:1030000080E090E80E945C1769017A0105C0C12C3C
:10301000D12CE12C88E0F82E40E060E070E0CB019C
:103020004801AA2497FCA094BA2CEC2FE053EA3074
:1030300060F02C2F21542A3110F4E75006C02C2FB9
:1030400021562A3128F5EC2FE7552E2F30E0201796
:103050003107F4F447FD18C0C616D706E806F9068E
:1030600080F09B01AC01C501B4010E9430176E0FC6
:10307000711D811D911D61307105810520E8920748
:1030800010F04FEF01C041E0F301C1913F01CDCFFE
:103090004114510491F0442339F0F1E06F1A7108A2
:1030A000F2017182608209C0D1FF1BC0F2E06F1A89
:1030B0007108F2017182608214C047FF12C0D0FF14
:1030C00005C060E070E080E090E804C06FEF7FEF43
:1030D0008FEF9FE722E230E03093F7102093F61055
:1030E00016C0D0FF08C090958095709561957F4F70
:1030F0008F4F9F4F0CC097FF0AC082E290E09093E1
:10310000F7108093F6106FEF7FEF8FEF9FE76B0163
:103110007C0112C0C12CD12C76010EC0C0E3011578
:10312000110509F45ECF3FCFC03309F03CCF2CCF5F
:10313000C03309F04DCF28CFB601C701DF91CF9141
:103140001F910F91FF90EF90DF90CF90BF90AF90C5
:103150009F908F907F906F905F904F900895911106
:10316000E5C2803219F089508550D0F70895FB01EF
:10317000DC0104C08D910190801921F44150504030
:10318000C8F7881B990B0895FB01DC0141505040A2
:1031900030F08D910190801919F40020B9F7881B47
:1031A000990B0895CF93DF931F921F92CDB7DEB78F
:1031B000FE01389661917191FA83E983AF018091A4
:1031C000F2109091F3100E945E190F900F90DF9112
:1031D000CF9108956091F2107091F3100C94AF1B91
:1031E0000F931F93CF93DF938C01E091F210F09136
:1031F000F310838181FF1BC0C0E0D0E005C01995AA
:10320000892B11F0CFEFDFEFF80181918F016091F1
:10321000F2107091F310DB011896ED91FC91199763
:103220008111EDCF8AE01995892B09F402C0CFEF07
:10323000DFEFCE01DF91CF911F910F9108950F9392
:103240001F93CF93DF93CDB7DEB760970FB6F89497
:10325000DEBF0FBECDBF088D198D8A8D9B8D26E0F8
:103260002C831A83098397FF02C080E090E80197BE
:103270009E838D83AE01425E5F4F588B4F876C8D6E
:103280007D8DCE0101960E945E194D815E8157FDB4
:103290000AC02F813885421753070CF49A01F801B0
:1032A000E20FF31F108260960FB6F894DEBF0FBED8
:1032B000CDBFDF91CF911F910F9108952F923F9233
:1032C0004F925F926F927F928F929F92AF92BF9236
:1032D000CF92DF92EF92FF920F931F93CF93DF93E2
:1032E000CDB7DEB72C970FB6F894DEBF0FBECDBFBB
:1032F0007C016B018A01FC0117821682838181FFA8
:10330000C7C188248394912C8C0E9D1EF701938154
:10331000F60193FD859193FF81916F01882309F454
:10332000B3C1853239F493FD859193FF81916F018B
:10333000853229F4B70190E00E94AF1BE7CF712CD2
:10334000312C20E02032A8F48B3261F028F4803256
:1033500051F0833271F40BC08D3239F0803349F46F
:10336000216028C02260246025C0286023C020611D
:1033700021C027FD27C0382F30533A3078F426FF7C
:1033800006C0FAE07F9E300D1124732E13C08AE030
:10339000389E300D1124332E20620CC08E3221F461
:1033A00026FD72C1206406C08C3611F4206802C06C
:1033B000883641F4F60193FD859193FF81916F0169
:1033C0008111C0CF982F9554933018F090529330BC
:1033D00028F40C5F1F4FFFE3F9830DC0833631F0F3
:1033E000833771F0833509F05EC023C0F801808116
:1033F00089830E5F1F4F66246394712C540115C09E
:103400002801F2E04F0E511CF801A080B18026FF88
:1034100003C0672D70E002C06FEF7FEFC5012C87FE
:103420000E94A41B3C0182012C856FE7262E2222DC
:1034300018C02801F2E04F0E511CF801A080B180A5
:1034400026FF03C0672D70E002C06FEF7FEFC5015C
:103450002C870E94991B3C012C8550E8252E222A9E
:10346000820123FC1CC006C0B70180E290E00E94EC
:10347000AF1B3A94832D90E068167906A8F30FC02D
:10348000F50127FC859127FE81915F01B70190E04E
:103490000E94AF1B31103A94F1E06F1A7108611469
:1034A000710471F7EEC0843611F0893641F5F801E8
:1034B00027FF07C060817181828193810C5F1F4F5C
:1034C00008C060817181882777FD8095982F0E5FF5
:1034D0001F4F4FE6642E622297FF09C0909580959A
:1034E000709561957F4F8F4F9F4FF0E86F2A2AE0CC
:1034F00030E0A4010E94DB1BA82EA81844C0853729
:1035000031F43FEEB32EB2222AE030E024C099EF2E
:10351000B92EB2228F36B9F020F4883509F0B4C044
:103520000DC0803721F0883709F0AEC002C020E11D
:10353000B22AB4FE0BC084E0B82A08C024FF09C038
:10354000E6E0BE2A06C028E030E005C020E130E019
:1035500002C020E132E0F801B7FE07C0608171814E
:10356000828193810C5F1F4F06C06081718180E072
:1035700090E00E5F1F4FA4010E94DB1BA82EA8182D
:103580008FE7682E6B2066FE0BC0362D3E7FA7149A
:1035900050F464FE0AC062FC08C0362D3E7E05C0B1
:1035A000BA2C362D03C0BA2C01C0B72C34FF0DC085
:1035B000FE01EA0DF11D8081803311F4397E09C0CE
:1035C00032FF06C0B394B39404C0832F867809F009
:1035D000B39433FD14C030FF0FC07A2CB31460F4E1
:1035E000730C7B18B32C08C0B70180E290E03C87D5
:1035F0000E94AF1BB3943C85B314B0F304C0B31462
:1036000010F43B1801C0312C34FF12C0B70180E325
:1036100090E03C870E94AF1B3C8532FF1EC031FF0B
:1036200003C088E590E002C088E790E0B7010CC0D5
:10363000832F867891F031FD02C080E201C08BE2D9
:1036400037FD8DE2B70190E00E94AF1B06C0B701C5
:1036500080E390E00E94AF1B7A94A714C0F3AA9471
:10366000F401EA0DF11DB701808190E00E94AF1BCB
:10367000A110F5CF06C0B70180E290E00E94AF1B19
:103680003A943110F8CF42CEF7012681378102C03B
:103690002FEF3FEFC9012C960FB6F894DEBF0FBE97
:1036A000CDBFDF91CF911F910F91FF90EF90DF90F1
:1036B000CF90BF90AF909F908F907F906F905F90D2
:1036C0004F903F902F900895DC01CB01FC01F999B8
:1036D000FECF06C0F2BDE1BDF89A319600B40D925E
:1036E00041505040B8F70895DC01A40FB51F415078
:1036F000504048F0CB01840F951F2E910E94851BEE
:1037000041505040D0F70895262FF999FECF92BD31
:1037100081BDF89A019700B4021639F01FBA20BD96
:103720000FB6F894FA9AF99A0FBE08959927882748
:103730000895FC010590615070400110D8F7809504
:1037400090958E0F9F1F0895FC016150704001906D
:103750000110D8F7809590958E0F9F1F08950F93B5
:103760001F93CF93DF938C01EB018B8181FD03C00D
:103770000FEF1FEF1AC082FF0DC02E813F818C8199
:103780009D812817390764F4E881F9810193F98351
:10379000E88306C0E885F985802F1995892B41F7C4
:1037A0008E819F8101969F838E83C801DF91CF9187
:1037B0001F910F910895FA01AA27283051F1203165
:1037C00081F1E8946F936E7F6E5F7F4F8F4F9F4FB5
:1037D000AF4FB1E03ED0B4E03CD0670F781F891FF7
:1037E0009A1FA11D680F791F8A1F911DA11D6A0FC5
:1037F000711D811D911DA11D20D009F468943F9178
:103800002AE0269F11243019305D3193DEF6CF0176
:103810000895462F4770405D4193B3E00FD0C9F73C
:10382000F6CF462F4F70405D4A3318F0495D31FDA9
:103830004052419302D0A9F7EACFB4E0A6959795FC
:10384000879577956795BA95C9F7009761057105D2
:1038500008959B01AC010A2E06945795479537951C
:103860002795BA95C9F7620F731F841F951FA01D76
:063870000895F894FFCF5B
:10387600FF00000000000000C000C800D0003001BA
:1038860001010A65384782ABBF004C6F6164696EFF
:1038960067206D6F74696F6E2073657175656E63F1
:1038A60065005374617274696E672075702E2E2ED2
:1038B60000446F696E6720696E697469616C697A24
:1038C6006174696F6E002520642000537461727400
:1038D6006564204A415641206F6E2025640A0046E1
:1038E60061696C656420746F207374617274204A18
:1038F600415641206F6E2025640A004D6F76696E31
:103906006720746F20737461727420706F736974AA
:10391600696F6E0073756363657373006661696CC6
:10392600757265002325645A2563002325645A5061
:103936000025645A502B0023256450256400232556
:1039460064284A41002564284A412B002325646ED9
:103956002575002325646F2575004E6F2076616CF2
:10396600696420636F6E66696775726174696F6EEC
:1039760020666F756E6420696E20454550524F4D26
:0239860000003F
:00000001FF
